:108080007210500C7210500D7210500E7212500C73
:108090007212500E351052123550521B3500521CC0
:1080A0003500521A3509521D7214521172105210B5
:1080B0008172025219FB81720F5217FB81721052AA
:1080C0001172015217FB8172125211817203521701
:1080D000FB72015219FB81CD80B1CD80BD3590522C
:1080E00016CD80CC35015216CD80B790CE85F69056
:1080F0009EC75216CD80B7909FCD80B77212521195
:1081000081CD80B1CD80BD35905216CD80CC35006B
:108110005216CD80B772125211CD80B1CD80BD35CF
:108120009152167216521172145211CD80CC7205F2
:108130005217FB72125211C652169095C6521690E3
:108140009772B985F290CF0000725F0010725F00E5
:1081500011725F0012725F0013CE00002A0150906E
:10816000AE000690DF000090AE000790D6000090B1
:10817000AE000490DE0008904272B9001290CF0069
:108180001290AE000790D6000090AE000390DE0083
:1081900008904272B900112404725C001090CF0064
:1081A0001190AE000690D6000090AE000490DE0064
:1081B00008904272B900112404725C001090CF0044
:1081C0001190AE000690D6000090AE000390DE0045
:1081D00008904272B9001090CF0010CE00002A1C07
:1081E0005F72B000105A90AE000290DF00005F7224
:1081F000B0001290AE000490DF000081CE0010901D
:10820000AE000290DF0000CE001290AE000490DFBE
:03821000000081EA
:108213007215500C7214500D7216500C7216500DCC
:108223007218500C7218500D3568523235035233A0
:10823300721152347215523472195234721B523401
:108243007219500A7214523572165235721A523517
:1082530081A608C00058270181CE000872B000181B
:10826300270181CD83E590CE001F72B20060A60482
:10827300C0001A2716A603C0001A271EA606C000B0
:108283001A2726A601C7003BCC82B7CE001B72BBC0
:10829300001D1D00042A1DCC82D3CE001B72BB001F
:1082A3001D1D00052A0ECC8317CE001B1D00042ABA
:1082B30003CC835BA603C70038550019003955006A
:1082C3001A003A721E003AA603C7003BCD842E81E2
:1082D300550019003955001A003ACE001DA6024276
:1082E3009FC7003BCE001BA602421C00009FCB0091
:1082F3003BC70080905F9FC10080270DD600009090
:10830300D7003C905C5CCC82F9909FAB03C70038EC
:10831300CD842E81550019003955001A003ACE003C
:108323001DA602429FC7003BCE001BA602421C00B3
:10833300089FCB003BC70080905F9FC10080270D43
:10834300D6000090D7003C905C5CCC833D909FAB03
:1083530003C70038CD842E81CD85A190CE001B901C
:108363005A2B0F905A2B1A905A2B27905A2B34CCF6
:1083730082B790CE001D90CF000890CF85F0CC83BC
:10838300B790CE001DAE0002DF000890CF85F2CC7F
:1083930083B790CE001DAE0004DF000890CF85F4B4
:1083A300CC83B790CE001DAE0006DF000890CF85CA
:1083B300F6CC83B7550019003955001A003A550019
:1083C3001B003B90CE001B90CF003B90CE001D9036
:1083D300CF003DA606C70038CD842ECD85CBCD85F5
:1083E300B3815500FF00615500FF00603500006256
:1083F300725D00582734725A0058725A0058AE0002
:1084030000C6006297D60019C80060C7006397D6FC
:108413008600C80061C70060D68700C70061725C30
:108423000062C60058C1006226D48135FF00613561
:10843300FF006035000062AE0000C6006297D60000
:1084430039C80060C7006397D68600C80061C700BB
:1084530060D68700C70061725C0062C60038C10045
:108463006226D4C6006297C60060D700395CC60096
:1084730061D700395CCF0078CD847F81721B523580
:108483007218500AAE0000C30078270FD600397265
:108493000F5230FBC752315CCC848A720D5230FBD1
:0984A3007219500A721A52358157
:1084AC00AE03FF94CC850E20F780721152E472114A
:1084BC0052E590185005550018005835000018CD9D
:1084CC008101CD8254809BAE0000C6001897C65225
:1084DC0031D70019725C0018721B5230721152E0C5
:1084EC00721152E3350E52E7350352E8721052E521
:1084FC00721652E0721052E3721452E0721052E093
:02850C009A8053
:10850E00721850077218500872195009350050C071
:10851E00353F50C3AE00007F5CA3008423F9CE85A7
:10852E00F0BF0890AE0002CE85F290EF0890AE003C
:10853E0004CE85F490EF0890AE0006CE85F690EF4F
:10854E0008AE1234BF0090AE0002AE567890EF0027
:10855E0090AE0004AE112290EF00721152E0721133
:10856E0052E3350E52E7350352E8721052E5721699
:10857E0052E0721052E3721452E0721052E0CD804B
:10858E0080CD80D73500001835000058CD82139A63
:10859E00CC859E3556505235AE50528135AE505325
:0E85AE00355650538172135054721750548139
:1085BC00A60190AE150072A20001A20026F881AEB1
:0685CC00D4005A26FD81D7
:10800000820084AC820084B5820084B5820084B58D
:10801000820084B5820084B5820084B5820084B574
:10802000820084B5820084B5820084B5820084B564
:10803000820084B5820084B5820084B5820084B554
:10804000820084B5820084B5820084B5820084B544
:10805000820084B5820084B5820084B5820084B534
:10806000820084B5820084B5820084B5820084B623
:10807000820084B5820084B5820084D2820084B5F7
:0885F0000001000003E80E0386
:1086000000C1814001C0804101C0804100C1814062
:1086100001C0804100C1814000C1814001C0804152
:1086200001C0804100C1814000C1814001C0804142
:1086300000C1814001C0804101C0804100C1814032
:1086400001C0804100C1814000C1814001C0804122
:1086500000C1814001C0804101C0804100C1814012
:1086600000C1814001C0804101C0804100C1814002
:1086700001C0804100C1814000C1814001C08041F2
:1086800001C0804100C1814000C1814001C08041E2
:1086900000C1814001C0804101C0804100C18140D2
:1086A00000C1814001C0804101C0804100C18140C2
:1086B00001C0804100C1814000C1814001C08041B2
:1086C00000C1814001C0804101C0804100C18140A2
:1086D00001C0804100C1814000C1814001C0804192
:1086E00001C0804100C1814000C1814001C0804182
:1086F00000C1814001C0804101C0804100C1814072
:1087000000C0C101C30302C2C60607C705C5C40431
:10871000CC0C0DCD0FCFCE0E0ACACB0BC90908C8A1
:10872000D81819D91BDBDA1A1EDEDF1FDD1D1CDC91
:1087300014D4D515D71716D6D21213D311D1D01001
:10874000F03031F133F3F23236F6F737F53534F4F1
:108750003CFCFD3DFF3F3EFEFA3A3BFB39F9F83861
:1087600028E8E929EB2B2AEAEE2E2FEF2DEDEC2C51
:10877000E42425E527E7E62622E2E323E12120E0C1
:10878000A06061A163A3A26266A6A767A56564A4B1
:108790006CACAD6DAF6F6EAEAA6A6BAB69A9A86821
:1087A00078B8B979BB7B7ABABE7E7FBF7DBDBC7C11
:1087B000B47475B577B7B67672B2B373B17170B081
:1087C0005090915193535292965657975595945471
:1087D0009C5C5D9D5F9F9E5E5A9A9B5B99595898E1
:1087E000884849894B8B8A4A4E8E8F4F8D4D4C8CD1
:1087F0004484854587474686824243834181804041
:00000001FF
